{
  "contractName": "OpinionToken",
  "abi": [
    {
      "inputs": [],
      "stateMutability": "nonpayable",
      "type": "constructor"
    },
    {
      "anonymous": false,
      "inputs": [
        {
          "indexed": true,
          "internalType": "address",
          "name": "owner",
          "type": "address"
        },
        {
          "indexed": true,
          "internalType": "address",
          "name": "spender",
          "type": "address"
        },
        {
          "indexed": false,
          "internalType": "uint256",
          "name": "value",
          "type": "uint256"
        }
      ],
      "name": "Approval",
      "type": "event"
    },
    {
      "anonymous": false,
      "inputs": [
        {
          "indexed": false,
          "internalType": "address",
          "name": "creator",
          "type": "address"
        },
        {
          "indexed": false,
          "internalType": "address",
          "name": "instanceAddress",
          "type": "address"
        }
      ],
      "name": "OpinionTokenInstanceCreated",
      "type": "event"
    },
    {
      "anonymous": false,
      "inputs": [
        {
          "indexed": true,
          "internalType": "address",
          "name": "from",
          "type": "address"
        },
        {
          "indexed": true,
          "internalType": "address",
          "name": "to",
          "type": "address"
        },
        {
          "indexed": false,
          "internalType": "uint256",
          "name": "value",
          "type": "uint256"
        }
      ],
      "name": "Transfer",
      "type": "event"
    },
    {
      "stateMutability": "payable",
      "type": "fallback"
    },
    {
      "stateMutability": "payable",
      "type": "receive"
    },
    {
      "inputs": [],
      "name": "getTokenCreator",
      "outputs": [
        {
          "internalType": "address",
          "name": "",
          "type": "address"
        }
      ],
      "stateMutability": "view",
      "type": "function"
    },
    {
      "inputs": [],
      "name": "totalSupply",
      "outputs": [
        {
          "internalType": "uint256",
          "name": "",
          "type": "uint256"
        }
      ],
      "stateMutability": "view",
      "type": "function"
    },
    {
      "inputs": [
        {
          "internalType": "address",
          "name": "account",
          "type": "address"
        }
      ],
      "name": "balanceOf",
      "outputs": [
        {
          "internalType": "uint256",
          "name": "balance",
          "type": "uint256"
        }
      ],
      "stateMutability": "view",
      "type": "function"
    },
    {
      "inputs": [
        {
          "internalType": "address",
          "name": "to",
          "type": "address"
        },
        {
          "internalType": "uint256",
          "name": "tokens",
          "type": "uint256"
        }
      ],
      "name": "transfer",
      "outputs": [
        {
          "internalType": "bool",
          "name": "success",
          "type": "bool"
        }
      ],
      "stateMutability": "nonpayable",
      "type": "function"
    },
    {
      "inputs": [
        {
          "internalType": "address",
          "name": "spender",
          "type": "address"
        },
        {
          "internalType": "uint256",
          "name": "tokens",
          "type": "uint256"
        }
      ],
      "name": "approve",
      "outputs": [
        {
          "internalType": "bool",
          "name": "success",
          "type": "bool"
        }
      ],
      "stateMutability": "nonpayable",
      "type": "function"
    },
    {
      "inputs": [
        {
          "internalType": "address",
          "name": "from",
          "type": "address"
        },
        {
          "internalType": "address",
          "name": "to",
          "type": "address"
        },
        {
          "internalType": "uint256",
          "name": "tokens",
          "type": "uint256"
        }
      ],
      "name": "transferFrom",
      "outputs": [
        {
          "internalType": "bool",
          "name": "success",
          "type": "bool"
        }
      ],
      "stateMutability": "nonpayable",
      "type": "function"
    },
    {
      "inputs": [
        {
          "internalType": "address",
          "name": "owner",
          "type": "address"
        },
        {
          "internalType": "address",
          "name": "spender",
          "type": "address"
        }
      ],
      "name": "allowance",
      "outputs": [
        {
          "internalType": "uint256",
          "name": "remaining",
          "type": "uint256"
        }
      ],
      "stateMutability": "view",
      "type": "function"
    },
    {
      "inputs": [
        {
          "internalType": "address",
          "name": "account",
          "type": "address"
        },
        {
          "internalType": "uint256",
          "name": "amount",
          "type": "uint256"
        }
      ],
      "name": "mint",
      "outputs": [],
      "stateMutability": "nonpayable",
      "type": "function"
    },
    {
      "inputs": [
        {
          "internalType": "uint256",
          "name": "amount",
          "type": "uint256"
        }
      ],
      "name": "mint",
      "outputs": [],
      "stateMutability": "nonpayable",
      "type": "function"
    },
    {
      "inputs": [
        {
          "internalType": "address",
          "name": "account",
          "type": "address"
        },
        {
          "internalType": "uint256",
          "name": "amount",
          "type": "uint256"
        }
      ],
      "name": "burn",
      "outputs": [],
      "stateMutability": "nonpayable",
      "type": "function"
    },
    {
      "inputs": [
        {
          "internalType": "address",
          "name": "spender",
          "type": "address"
        },
        {
          "internalType": "uint256",
          "name": "tokens",
          "type": "uint256"
        },
        {
          "internalType": "bytes",
          "name": "data",
          "type": "bytes"
        }
      ],
      "name": "approveAndCall",
      "outputs": [
        {
          "internalType": "bool",
          "name": "success",
          "type": "bool"
        }
      ],
      "stateMutability": "nonpayable",
      "type": "function"
    },
    {
      "inputs": [
        {
          "internalType": "address",
          "name": "spender",
          "type": "address"
        },
        {
          "internalType": "uint256",
          "name": "tokens",
          "type": "uint256"
        },
        {
          "internalType": "string",
          "name": "fieldName",
          "type": "string"
        },
        {
          "internalType": "string",
          "name": "areaName",
          "type": "string"
        },
        {
          "internalType": "uint256",
          "name": "speechIndex",
          "type": "uint256"
        },
        {
          "internalType": "bool",
          "name": "isUpVote",
          "type": "bool"
        },
        {
          "internalType": "string",
          "name": "comment",
          "type": "string"
        }
      ],
      "name": "approveAndVote",
      "outputs": [
        {
          "internalType": "bool",
          "name": "success",
          "type": "bool"
        }
      ],
      "stateMutability": "nonpayable",
      "type": "function"
    },
    {
      "inputs": [
        {
          "internalType": "address",
          "name": "spender",
          "type": "address"
        },
        {
          "internalType": "uint256",
          "name": "tokens",
          "type": "uint256"
        },
        {
          "internalType": "string",
          "name": "fieldName",
          "type": "string"
        },
        {
          "internalType": "string",
          "name": "areaName",
          "type": "string"
        },
        {
          "internalType": "string",
          "name": "title",
          "type": "string"
        },
        {
          "internalType": "string",
          "name": "text",
          "type": "string"
        }
      ],
      "name": "approveAndSpeak",
      "outputs": [
        {
          "internalType": "bool",
          "name": "success",
          "type": "bool"
        }
      ],
      "stateMutability": "nonpayable",
      "type": "function"
    }
  ],
  "bytecode": "0x6080604052600a6005553480156200001657600080fd5b506040518060400160405280600381526020017f414952000000000000000000000000000000000000000000000000000000000081525060009080519060200190620000649291906200035f565b506040518060400160405280600d81526020017f4f70696e696f6e20546f6b656e0000000000000000000000000000000000000081525060019080519060200190620000b29291906200035f565b5033600460006101000a81548173ffffffffffffffffffffffffffffffffffffffff021916908373ffffffffffffffffffffffffffffffffffffffff1602179055506000600260006101000a81548160ff021916908360ff16021790555060006003819055506200014e600460009054906101000a900473ffffffffffffffffffffffffffffffffffffffff16600354620001b160201b60201c565b7f01aa7958c2635578a91fc552df0275b688a400a919b603c97223b7b4172b89f3600460009054906101000a900473ffffffffffffffffffffffffffffffffffffffff1630604051620001a392919062000454565b60405180910390a16200062c565b600460009054906101000a900473ffffffffffffffffffffffffffffffffffffffff168073ffffffffffffffffffffffffffffffffffffffff163373ffffffffffffffffffffffffffffffffffffffff16146200020d57600080fd5b600073ffffffffffffffffffffffffffffffffffffffff168373ffffffffffffffffffffffffffffffffffffffff16036200027f576040517f08c379a00000000000000000000000000000000000000000000000000000000081526004016200027690620004e2565b60405180910390fd5b81600360008282546200029391906200053d565b9250508190555081600660008573ffffffffffffffffffffffffffffffffffffffff1673ffffffffffffffffffffffffffffffffffffffff1681526020019081526020016000206000828254620002eb91906200053d565b925050819055508273ffffffffffffffffffffffffffffffffffffffff16600073ffffffffffffffffffffffffffffffffffffffff167fddf252ad1be2c89b69c2b068fc378daa952ba7f163c4a11628f55a4df523b3ef84604051620003529190620005ab565b60405180910390a3505050565b8280546200036d90620005f7565b90600052602060002090601f016020900481019282620003915760008555620003dd565b82601f10620003ac57805160ff1916838001178555620003dd565b82800160010185558215620003dd579182015b82811115620003dc578251825591602001919060010190620003bf565b5b509050620003ec9190620003f0565b5090565b5b808211156200040b576000816000905550600101620003f1565b5090565b600073ffffffffffffffffffffffffffffffffffffffff82169050919050565b60006200043c826200040f565b9050919050565b6200044e816200042f565b82525050565b60006040820190506200046b600083018562000443565b6200047a602083018462000443565b9392505050565b600082825260208201905092915050565b7f45524332303a206d696e7420746f20746865207a65726f206164647265737300600082015250565b6000620004ca601f8362000481565b9150620004d78262000492565b602082019050919050565b60006020820190508181036000830152620004fd81620004bb565b9050919050565b6000819050919050565b7f4e487b7100000000000000000000000000000000000000000000000000000000600052601160045260246000fd5b60006200054a8262000504565b9150620005578362000504565b9250827fffffffffffffffffffffffffffffffffffffffffffffffffffffffffffffffff038211156200058f576200058e6200050e565b5b828201905092915050565b620005a58162000504565b82525050565b6000602082019050620005c260008301846200059a565b92915050565b7f4e487b7100000000000000000000000000000000000000000000000000000000600052602260045260246000fd5b600060028204905060018216806200061057607f821691505b602082108103620006265762000625620005c8565b5b50919050565b6120ec806200063c6000396000f3fe6080604052600436106100c65760003560e01c80639dc29fac1161007f578063c71db8ae11610059578063c71db8ae146103ac578063c933b051146103e9578063cae9ca5114610426578063dd62ed3e14610463576101e2565b80639dc29fac1461031d578063a0712d6814610346578063a9059cbb1461036f576101e2565b8063095ea7b3146101e757806318160ddd1461022457806323b872dd1461024f57806340c10f191461028c57806370a08231146102b55780639c679017146102f2576101e2565b366101e2576000600554346100db91906113df565b905080610109600460009054906101000a900473ffffffffffffffffffffffffffffffffffffffff166104a0565b101561014a576040517f08c379a000000000000000000000000000000000000000000000000000000000815260040161014190611496565b60405180910390fd5b610177600460009054906101000a900473ffffffffffffffffffffffffffffffffffffffff1633836104e9565b50600460009054906101000a900473ffffffffffffffffffffffffffffffffffffffff1673ffffffffffffffffffffffffffffffffffffffff166108fc349081150290604051600060405180830381858888f193505050501580156101e0573d6000803e3d6000fd5b005b600080fd5b3480156101f357600080fd5b5061020e60048036038101906102099190611554565b6108c9565b60405161021b91906115af565b60405180910390f35b34801561023057600080fd5b506102396109bb565b60405161024691906115d9565b60405180910390f35b34801561025b57600080fd5b50610276600480360381019061027191906115f4565b6104e9565b60405161028391906115af565b60405180910390f35b34801561029857600080fd5b506102b360048036038101906102ae9190611554565b610a0f565b005b3480156102c157600080fd5b506102dc60048036038101906102d79190611647565b6104a0565b6040516102e991906115d9565b60405180910390f35b3480156102fe57600080fd5b50610307610bb3565b6040516103149190611683565b60405180910390f35b34801561032957600080fd5b50610344600480360381019061033f9190611554565b610bdd565b005b34801561035257600080fd5b5061036d6004803603810190610368919061169e565b610df9565b005b34801561037b57600080fd5b5061039660048036038101906103919190611554565b610e84565b6040516103a391906115af565b60405180910390f35b3480156103b857600080fd5b506103d360048036038101906103ce9190611811565b61116f565b6040516103e091906115af565b60405180910390f35b3480156103f557600080fd5b50610410600480360381019061040b919061193a565b611201565b60405161041d91906115af565b60405180910390f35b34801561043257600080fd5b5061044d60048036038101906104489190611ad1565b611296565b60405161045a91906115af565b60405180910390f35b34801561046f57600080fd5b5061048a60048036038101906104859190611b40565b61131f565b60405161049791906115d9565b60405180910390f35b6000600660008373ffffffffffffffffffffffffffffffffffffffff1673ffffffffffffffffffffffffffffffffffffffff168152602001908152602001600020549050919050565b600073__SafeMath______________________________63a293d1e8600660008773ffffffffffffffffffffffffffffffffffffffff1673ffffffffffffffffffffffffffffffffffffffff16815260200190815260200160002054846040518363ffffffff1660e01b8152600401610563929190611b8f565b602060405180830381865af4158015610580573d6000803e3d6000fd5b505050506040513d601f19601f820116820180604052508101906105a49190611bcd565b600660008673ffffffffffffffffffffffffffffffffffffffff1673ffffffffffffffffffffffffffffffffffffffff1681526020019081526020016000208190555073__SafeMath______________________________63a293d1e8600760008773ffffffffffffffffffffffffffffffffffffffff1673ffffffffffffffffffffffffffffffffffffffff16815260200190815260200160002060003373ffffffffffffffffffffffffffffffffffffffff1673ffffffffffffffffffffffffffffffffffffffff16815260200190815260200160002054846040518363ffffffff1660e01b815260040161069c929190611b8f565b602060405180830381865af41580156106b9573d6000803e3d6000fd5b505050506040513d601f19601f820116820180604052508101906106dd9190611bcd565b600760008673ffffffffffffffffffffffffffffffffffffffff1673ffffffffffffffffffffffffffffffffffffffff16815260200190815260200160002060003373ffffffffffffffffffffffffffffffffffffffff1673ffffffffffffffffffffffffffffffffffffffff1681526020019081526020016000208190555073__SafeMath______________________________63e6cb9013600660008673ffffffffffffffffffffffffffffffffffffffff1673ffffffffffffffffffffffffffffffffffffffff16815260200190815260200160002054846040518363ffffffff1660e01b81526004016107d5929190611b8f565b602060405180830381865af41580156107f2573d6000803e3d6000fd5b505050506040513d601f19601f820116820180604052508101906108169190611bcd565b600660008573ffffffffffffffffffffffffffffffffffffffff1673ffffffffffffffffffffffffffffffffffffffff168152602001908152602001600020819055508273ffffffffffffffffffffffffffffffffffffffff168473ffffffffffffffffffffffffffffffffffffffff167fddf252ad1be2c89b69c2b068fc378daa952ba7f163c4a11628f55a4df523b3ef846040516108b691906115d9565b60405180910390a3600190509392505050565b600081600760003373ffffffffffffffffffffffffffffffffffffffff1673ffffffffffffffffffffffffffffffffffffffff16815260200190815260200160002060008573ffffffffffffffffffffffffffffffffffffffff1673ffffffffffffffffffffffffffffffffffffffff168152602001908152602001600020819055508273ffffffffffffffffffffffffffffffffffffffff163373ffffffffffffffffffffffffffffffffffffffff167f8c5be1e5ebec7d5bd14f71427d1e84f3dd0314c0f7b2291e5b200ac8c7c3b925846040516109a991906115d9565b60405180910390a36001905092915050565b6000600660008073ffffffffffffffffffffffffffffffffffffffff1673ffffffffffffffffffffffffffffffffffffffff16815260200190815260200160002054600354610a0a9190611bfa565b905090565b600460009054906101000a900473ffffffffffffffffffffffffffffffffffffffff168073ffffffffffffffffffffffffffffffffffffffff163373ffffffffffffffffffffffffffffffffffffffff1614610a6a57600080fd5b600073ffffffffffffffffffffffffffffffffffffffff168373ffffffffffffffffffffffffffffffffffffffff1603610ad9576040517f08c379a0000000000000000000000000000000000000000000000000000000008152600401610ad090611c7a565b60405180910390fd5b8160036000828254610aeb9190611c9a565b9250508190555081600660008573ffffffffffffffffffffffffffffffffffffffff1673ffffffffffffffffffffffffffffffffffffffff1681526020019081526020016000206000828254610b419190611c9a565b925050819055508273ffffffffffffffffffffffffffffffffffffffff16600073ffffffffffffffffffffffffffffffffffffffff167fddf252ad1be2c89b69c2b068fc378daa952ba7f163c4a11628f55a4df523b3ef84604051610ba691906115d9565b60405180910390a3505050565b6000600460009054906101000a900473ffffffffffffffffffffffffffffffffffffffff16905090565b600460009054906101000a900473ffffffffffffffffffffffffffffffffffffffff168073ffffffffffffffffffffffffffffffffffffffff163373ffffffffffffffffffffffffffffffffffffffff1614610c3857600080fd5b600073ffffffffffffffffffffffffffffffffffffffff168373ffffffffffffffffffffffffffffffffffffffff1603610ca7576040517f08c379a0000000000000000000000000000000000000000000000000000000008152600401610c9e90611d62565b60405180910390fd5b6000600660008573ffffffffffffffffffffffffffffffffffffffff1673ffffffffffffffffffffffffffffffffffffffff16815260200190815260200160002054905082811015610d2e576040517f08c379a0000000000000000000000000000000000000000000000000000000008152600401610d2590611df4565b60405180910390fd5b828103600660008673ffffffffffffffffffffffffffffffffffffffff1673ffffffffffffffffffffffffffffffffffffffff168152602001908152602001600020819055508260036000828254610d869190611bfa565b92505081905550600073ffffffffffffffffffffffffffffffffffffffff168473ffffffffffffffffffffffffffffffffffffffff167fddf252ad1be2c89b69c2b068fc378daa952ba7f163c4a11628f55a4df523b3ef85604051610deb91906115d9565b60405180910390a350505050565b600460009054906101000a900473ffffffffffffffffffffffffffffffffffffffff168073ffffffffffffffffffffffffffffffffffffffff163373ffffffffffffffffffffffffffffffffffffffff1614610e5457600080fd5b610e80600460009054906101000a900473ffffffffffffffffffffffffffffffffffffffff1683610a0f565b5050565b600081600660003373ffffffffffffffffffffffffffffffffffffffff1673ffffffffffffffffffffffffffffffffffffffff168152602001908152602001600020541015610f08576040517f08c379a0000000000000000000000000000000000000000000000000000000008152600401610eff90611e60565b60405180910390fd5b73__SafeMath______________________________63a293d1e8600660003373ffffffffffffffffffffffffffffffffffffffff1673ffffffffffffffffffffffffffffffffffffffff16815260200190815260200160002054846040518363ffffffff1660e01b8152600401610f80929190611b8f565b602060405180830381865af4158015610f9d573d6000803e3d6000fd5b505050506040513d601f19601f82011682018060405250810190610fc19190611bcd565b600660003373ffffffffffffffffffffffffffffffffffffffff1673ffffffffffffffffffffffffffffffffffffffff1681526020019081526020016000208190555073__SafeMath______________________________63e6cb9013600660008673ffffffffffffffffffffffffffffffffffffffff1673ffffffffffffffffffffffffffffffffffffffff16815260200190815260200160002054846040518363ffffffff1660e01b815260040161107c929190611b8f565b602060405180830381865af4158015611099573d6000803e3d6000fd5b505050506040513d601f19601f820116820180604052508101906110bd9190611bcd565b600660008573ffffffffffffffffffffffffffffffffffffffff1673ffffffffffffffffffffffffffffffffffffffff168152602001908152602001600020819055508273ffffffffffffffffffffffffffffffffffffffff163373ffffffffffffffffffffffffffffffffffffffff167fddf252ad1be2c89b69c2b068fc378daa952ba7f163c4a11628f55a4df523b3ef8460405161115d91906115d9565b60405180910390a36001905092915050565b600061117b87876108c9565b508673ffffffffffffffffffffffffffffffffffffffff1663aec6a0a3338830898989896040518863ffffffff1660e01b81526004016111c19796959493929190611ef7565b600060405180830381600087803b1580156111db57600080fd5b505af11580156111ef573d6000803e3d6000fd5b50505050600190509695505050505050565b600061120d88886108c9565b508773ffffffffffffffffffffffffffffffffffffffff16635ced17ff3389308a8a8a8a8a6040518963ffffffff1660e01b8152600401611255989796959493929190611f82565b600060405180830381600087803b15801561126f57600080fd5b505af1158015611283573d6000803e3d6000fd5b5050505060019050979650505050505050565b60006112a284846108c9565b508373ffffffffffffffffffffffffffffffffffffffff166350c73eac338530866040518563ffffffff1660e01b81526004016112e2949392919061206a565b600060405180830381600087803b1580156112fc57600080fd5b505af1158015611310573d6000803e3d6000fd5b50505050600190509392505050565b6000600760008473ffffffffffffffffffffffffffffffffffffffff1673ffffffffffffffffffffffffffffffffffffffff16815260200190815260200160002060008373ffffffffffffffffffffffffffffffffffffffff1673ffffffffffffffffffffffffffffffffffffffff16815260200190815260200160002054905092915050565b6000819050919050565b7f4e487b7100000000000000000000000000000000000000000000000000000000600052601160045260246000fd5b60006113ea826113a6565b91506113f5836113a6565b9250817fffffffffffffffffffffffffffffffffffffffffffffffffffffffffffffffff048311821515161561142e5761142d6113b0565b5b828202905092915050565b600082825260208201905092915050565b7f4e6f7420656e6f75676820746f6b656e73000000000000000000000000000000600082015250565b6000611480601183611439565b915061148b8261144a565b602082019050919050565b600060208201905081810360008301526114af81611473565b9050919050565b6000604051905090565b600080fd5b600080fd5b600073ffffffffffffffffffffffffffffffffffffffff82169050919050565b60006114f5826114ca565b9050919050565b611505816114ea565b811461151057600080fd5b50565b600081359050611522816114fc565b92915050565b611531816113a6565b811461153c57600080fd5b50565b60008135905061154e81611528565b92915050565b6000806040838503121561156b5761156a6114c0565b5b600061157985828601611513565b925050602061158a8582860161153f565b9150509250929050565b60008115159050919050565b6115a981611594565b82525050565b60006020820190506115c460008301846115a0565b92915050565b6115d3816113a6565b82525050565b60006020820190506115ee60008301846115ca565b92915050565b60008060006060848603121561160d5761160c6114c0565b5b600061161b86828701611513565b935050602061162c86828701611513565b925050604061163d8682870161153f565b9150509250925092565b60006020828403121561165d5761165c6114c0565b5b600061166b84828501611513565b91505092915050565b61167d816114ea565b82525050565b60006020820190506116986000830184611674565b92915050565b6000602082840312156116b4576116b36114c0565b5b60006116c28482850161153f565b91505092915050565b600080fd5b600080fd5b6000601f19601f8301169050919050565b7f4e487b7100000000000000000000000000000000000000000000000000000000600052604160045260246000fd5b61171e826116d5565b810181811067ffffffffffffffff8211171561173d5761173c6116e6565b5b80604052505050565b60006117506114b6565b905061175c8282611715565b919050565b600067ffffffffffffffff82111561177c5761177b6116e6565b5b611785826116d5565b9050602081019050919050565b82818337600083830152505050565b60006117b46117af84611761565b611746565b9050828152602081018484840111156117d0576117cf6116d0565b5b6117db848285611792565b509392505050565b600082601f8301126117f8576117f76116cb565b5b81356118088482602086016117a1565b91505092915050565b60008060008060008060c0878903121561182e5761182d6114c0565b5b600061183c89828a01611513565b965050602061184d89828a0161153f565b955050604087013567ffffffffffffffff81111561186e5761186d6114c5565b5b61187a89828a016117e3565b945050606087013567ffffffffffffffff81111561189b5761189a6114c5565b5b6118a789828a016117e3565b935050608087013567ffffffffffffffff8111156118c8576118c76114c5565b5b6118d489828a016117e3565b92505060a087013567ffffffffffffffff8111156118f5576118f46114c5565b5b61190189828a016117e3565b9150509295509295509295565b61191781611594565b811461192257600080fd5b50565b6000813590506119348161190e565b92915050565b600080600080600080600060e0888a031215611959576119586114c0565b5b60006119678a828b01611513565b97505060206119788a828b0161153f565b965050604088013567ffffffffffffffff811115611999576119986114c5565b5b6119a58a828b016117e3565b955050606088013567ffffffffffffffff8111156119c6576119c56114c5565b5b6119d28a828b016117e3565b94505060806119e38a828b0161153f565b93505060a06119f48a828b01611925565b92505060c088013567ffffffffffffffff811115611a1557611a146114c5565b5b611a218a828b016117e3565b91505092959891949750929550565b600067ffffffffffffffff821115611a4b57611a4a6116e6565b5b611a54826116d5565b9050602081019050919050565b6000611a74611a6f84611a30565b611746565b905082815260208101848484011115611a9057611a8f6116d0565b5b611a9b848285611792565b509392505050565b600082601f830112611ab857611ab76116cb565b5b8135611ac8848260208601611a61565b91505092915050565b600080600060608486031215611aea57611ae96114c0565b5b6000611af886828701611513565b9350506020611b098682870161153f565b925050604084013567ffffffffffffffff811115611b2a57611b296114c5565b5b611b3686828701611aa3565b9150509250925092565b60008060408385031215611b5757611b566114c0565b5b6000611b6585828601611513565b9250506020611b7685828601611513565b9150509250929050565b611b89816113a6565b82525050565b6000604082019050611ba46000830185611b80565b611bb16020830184611b80565b9392505050565b600081519050611bc781611528565b92915050565b600060208284031215611be357611be26114c0565b5b6000611bf184828501611bb8565b91505092915050565b6000611c05826113a6565b9150611c10836113a6565b925082821015611c2357611c226113b0565b5b828203905092915050565b7f45524332303a206d696e7420746f20746865207a65726f206164647265737300600082015250565b6000611c64601f83611439565b9150611c6f82611c2e565b602082019050919050565b60006020820190508181036000830152611c9381611c57565b9050919050565b6000611ca5826113a6565b9150611cb0836113a6565b9250827fffffffffffffffffffffffffffffffffffffffffffffffffffffffffffffffff03821115611ce557611ce46113b0565b5b828201905092915050565b7f45524332303a206275726e2066726f6d20746865207a65726f2061646472657360008201527f7300000000000000000000000000000000000000000000000000000000000000602082015250565b6000611d4c602183611439565b9150611d5782611cf0565b604082019050919050565b60006020820190508181036000830152611d7b81611d3f565b9050919050565b7f45524332303a206275726e20616d6f756e7420657863656564732062616c616e60008201527f6365000000000000000000000000000000000000000000000000000000000000602082015250565b6000611dde602283611439565b9150611de982611d82565b604082019050919050565b60006020820190508181036000830152611e0d81611dd1565b9050919050565b7f4e6f2073756666696369656e7420746f6b656e7320746f207472616e73666572600082015250565b6000611e4a602083611439565b9150611e5582611e14565b602082019050919050565b60006020820190508181036000830152611e7981611e3d565b9050919050565b600081519050919050565b60005b83811015611ea9578082015181840152602081019050611e8e565b83811115611eb8576000848401525b50505050565b6000611ec982611e80565b611ed38185611439565b9350611ee3818560208601611e8b565b611eec816116d5565b840191505092915050565b600060e082019050611f0c600083018a611674565b611f1960208301896115ca565b611f266040830188611674565b8181036060830152611f388187611ebe565b90508181036080830152611f4c8186611ebe565b905081810360a0830152611f608185611ebe565b905081810360c0830152611f748184611ebe565b905098975050505050505050565b600061010082019050611f98600083018b611674565b611fa5602083018a6115ca565b611fb26040830189611674565b8181036060830152611fc48188611ebe565b90508181036080830152611fd88187611ebe565b9050611fe760a08301866115ca565b611ff460c08301856115a0565b81810360e08301526120068184611ebe565b90509998505050505050505050565b600081519050919050565b600082825260208201905092915050565b600061203c82612015565b6120468185612020565b9350612056818560208601611e8b565b61205f816116d5565b840191505092915050565b600060808201905061207f6000830187611674565b61208c60208301866115ca565b6120996040830185611674565b81810360608301526120ab8184612031565b90509594505050505056fea26469706673582212209a074e953a74c16c7fd402c0cf2fa23dc2f538d431c9a7ecdb40380007bbfd4464736f6c634300080d0033",
  "immutableReferences": {},
  "source": "// SPDX-License-Identifier: UNLICENSED\npragma solidity >=0.4.24;\n\n//Ref: https://www.quicknode.com/guides/solidity/how-to-create-and-deploy-an-erc20-token\n//Ref: https://github.com/OpenZeppelin/openzeppelin-contracts/blob/master/contracts/token/ERC20/ERC20.sol\n//Ref: https://wizard.openzeppelin.com/\n\n\nimport \"./IERC20.sol\"; \nimport \"./SafeMath.sol\"; \nimport \"./OpenAir.sol\";\nimport \"./ApprovalCallBack.sol\";\n  \ncontract OpinionToken is IERC20 {\n    string symbol;\n    string name;\n    uint8 decimals;\n    uint256 totalSupply_;\n    address tokenCreator;         // the creator of token contract\n    uint256 unitsOneEthCanBuy  = 10; //symbloc -- not to be used\n    \n    mapping(address => uint) balances;\n    mapping(address => mapping(address => uint)) allowed;\n \n \n    event OpinionTokenInstanceCreated(address creator, address instanceAddress);\n    constructor() {\n        symbol = \"AIR\";\n        name = \"Opinion Token\";\n        tokenCreator = msg.sender; \n        decimals = 0;\n        totalSupply_ = 0;\n        \n        mint(tokenCreator, totalSupply_);\n        emit OpinionTokenInstanceCreated(tokenCreator, address(this));\n    }\n\n    modifier onlyBy(address addr) {\n        require(msg.sender == addr);\n        _;\n    }\n \n    function getTokenCreator() public view returns (address) {\n        return tokenCreator;\n    }\n\n    function totalSupply() public view returns (uint256) {\n        return totalSupply_  - balances[address(0)];\n    }\n \n    function balanceOf(address account) public view returns (uint256 balance) {\n        return balances[account];\n    }\n \n    function transfer(address to, uint tokens) public returns (bool success) {\n        require(balances[msg.sender] >= tokens, \"No sufficient tokens to transfer\");\n        balances[msg.sender] = SafeMath.safeSub(balances[msg.sender], tokens);\n        balances[to] = SafeMath.safeAdd(balances[to], tokens);\n        emit Transfer(msg.sender, to, tokens);\n        return true;\n    }\n \n    function approve(address spender, uint256 tokens) public returns (bool success) {\n        allowed[msg.sender][spender] = tokens;\n        emit Approval(msg.sender, spender, tokens);\n        return true;\n    }\n \n    function transferFrom(address from, address to, uint256 tokens) public returns (bool success) {\n        balances[from] = SafeMath.safeSub(balances[from], tokens);\n        allowed[from][msg.sender] = SafeMath.safeSub(allowed[from][msg.sender], tokens);\n        balances[to] = SafeMath.safeAdd(balances[to], tokens);\n        emit Transfer(from, to, tokens);\n        return true;\n    }\n \n    function allowance(address owner, address spender) public view returns (uint256 remaining) {\n        return allowed[owner][spender];\n    }\n \n\n\n    receive() external payable {        \n        uint256 amount = msg.value * unitsOneEthCanBuy;\n        require(balanceOf(tokenCreator) >= amount, \"Not enough tokens\");\n        transferFrom(tokenCreator, msg.sender, amount);\n        // emit an event to inform of the transfer        \n        //emit Transfer(tokenCreator, msg.sender, amount);\n        // send the ether earned to the token owner\n        payable(tokenCreator).transfer(msg.value);\n    }\n \n    fallback() external payable {\n        revert();\n    }\n\n\n    function mint(address account, uint256 amount) public onlyBy(tokenCreator)  {\n        require(account != address(0), \"ERC20: mint to the zero address\");\n        totalSupply_ += amount;\n        balances[account] += amount;\n        emit Transfer(address(0), account, amount);\n        //_afterTokenTransfer(address(0), account, amount); //hook, not used\n    }\n\n    function mint(uint256 amount) public onlyBy(tokenCreator) {\n        mint(address(tokenCreator), amount);\n    }\n\n    function burn(address account, uint256 amount) public onlyBy(tokenCreator) {\n        require(account != address(0), \"ERC20: burn from the zero address\");\n        //_beforeTokenTransfer(account, tokenCreator, amount); //hook, not used\n        uint256 accountBalance = balances[account];\n        require(accountBalance >= amount, \"ERC20: burn amount exceeds balance\");\n        unchecked {\n            balances[account] = accountBalance - amount;\n        }\n        totalSupply_ -= amount;\n        emit Transfer(account, address(0), amount);\n        //_afterTokenTransfer(account, tokenCreator, amount); //hook, not used\n    }\n\n\n    function approveAndCall(address spender, uint256 tokens, bytes memory data) public returns (bool success) {\n        approve(spender, tokens);\n        ApprovalCallBack(spender).onApproveAndCall(msg.sender, tokens, address(this), data);\n        return true;\n    }\n\n\n\n    function approveAndVote(address spender, uint256 tokens, string memory fieldName, string memory areaName, uint speechIndex, bool isUpVote, string memory comment) public returns (bool success) {\n\n        approve(spender, tokens);\n        ApprovalCallBack(address(spender)).onApproveAndVote(msg.sender, tokens, address(this), fieldName, areaName, speechIndex, isUpVote, comment);\n        \n        return true;\n    }\n\n\n    function approveAndSpeak(address spender, uint256 tokens, string memory fieldName, string memory areaName, string memory title, string memory text) public returns (bool success) {\n        \n        approve(spender, tokens); \n        ApprovalCallBack(spender).onApproveAndSpeak(msg.sender, tokens, address(this), fieldName, areaName, title, text);\n        \n        return true;\n    }\n\n\n}",
  "sourcePath": "/home/john/project/open-air-dapp/src/ethereum/contracts/OpinionToken.sol",
  "compiler": {
    "name": "solc",
    "version": "0.8.13+commit.abaa5c0e.Emscripten.clang"
  },
  "schemaVersion": "3.4.5",
  "updatedAt": "2022-04-03T23:05:24.615Z",
  "devdoc": {
    "kind": "dev",
    "methods": {
      "allowance(address,address)": {
        "details": "Returns the remaining number of tokens that `spender` will be allowed to spend on behalf of `owner` through {transferFrom}. This is zero by default. This value changes when {approve} or {transferFrom} are called."
      },
      "balanceOf(address)": {
        "details": "Returns the amount of tokens owned by `account`."
      },
      "totalSupply()": {
        "details": "Returns the amount of tokens in existence."
      }
    },
    "version": 1
  },
  "userdoc": {
    "kind": "user",
    "methods": {},
    "version": 1
  }
}