{
  "contractName": "SafeMath",
  "abi": [
    {
      "inputs": [
        {
          "internalType": "uint256",
          "name": "a",
          "type": "uint256"
        },
        {
          "internalType": "uint256",
          "name": "b",
          "type": "uint256"
        }
      ],
      "name": "safeAdd",
      "outputs": [
        {
          "internalType": "uint256",
          "name": "c",
          "type": "uint256"
        }
      ],
      "stateMutability": "pure",
      "type": "function",
      "constant": true
    },
    {
      "inputs": [
        {
          "internalType": "uint256",
          "name": "a",
          "type": "uint256"
        },
        {
          "internalType": "uint256",
          "name": "b",
          "type": "uint256"
        }
      ],
      "name": "safeSub",
      "outputs": [
        {
          "internalType": "uint256",
          "name": "c",
          "type": "uint256"
        }
      ],
      "stateMutability": "pure",
      "type": "function",
      "constant": true
    },
    {
      "inputs": [
        {
          "internalType": "uint256",
          "name": "a",
          "type": "uint256"
        },
        {
          "internalType": "uint256",
          "name": "b",
          "type": "uint256"
        }
      ],
      "name": "safeMul",
      "outputs": [
        {
          "internalType": "uint256",
          "name": "c",
          "type": "uint256"
        }
      ],
      "stateMutability": "pure",
      "type": "function",
      "constant": true
    },
    {
      "inputs": [
        {
          "internalType": "uint256",
          "name": "a",
          "type": "uint256"
        },
        {
          "internalType": "uint256",
          "name": "b",
          "type": "uint256"
        }
      ],
      "name": "safeDiv",
      "outputs": [
        {
          "internalType": "uint256",
          "name": "c",
          "type": "uint256"
        }
      ],
      "stateMutability": "pure",
      "type": "function",
      "constant": true
    }
  ],
  "bytecode": "0x610409610053600b82828239805160001a607314610046577f4e487b7100000000000000000000000000000000000000000000000000000000600052600060045260246000fd5b30600052607381538281f3fe73000000000000000000000000000000000000000030146080604052600436106100565760003560e01c8063a293d1e81461005b578063b5931f7c1461008b578063d05c78da146100bb578063e6cb9013146100eb575b600080fd5b610075600480360381019061007091906101f6565b61011b565b6040516100829190610245565b60405180910390f35b6100a560048036038101906100a091906101f6565b61013e565b6040516100b29190610245565b60405180910390f35b6100d560048036038101906100d091906101f6565b610160565b6040516100e29190610245565b60405180910390f35b610105600480360381019061010091906101f6565b610198565b6040516101129190610245565b60405180910390f35b60008282111561012a57600080fd5b8183610136919061028f565b905092915050565b600080821161014c57600080fd5b818361015891906102f2565b905092915050565b6000818361016e9190610323565b90506000831480610189575081838261018791906102f2565b145b61019257600080fd5b92915050565b600081836101a6919061037d565b9050828110156101b557600080fd5b92915050565b600080fd5b6000819050919050565b6101d3816101c0565b81146101de57600080fd5b50565b6000813590506101f0816101ca565b92915050565b6000806040838503121561020d5761020c6101bb565b5b600061021b858286016101e1565b925050602061022c858286016101e1565b9150509250929050565b61023f816101c0565b82525050565b600060208201905061025a6000830184610236565b92915050565b7f4e487b7100000000000000000000000000000000000000000000000000000000600052601160045260246000fd5b600061029a826101c0565b91506102a5836101c0565b9250828210156102b8576102b7610260565b5b828203905092915050565b7f4e487b7100000000000000000000000000000000000000000000000000000000600052601260045260246000fd5b60006102fd826101c0565b9150610308836101c0565b925082610318576103176102c3565b5b828204905092915050565b600061032e826101c0565b9150610339836101c0565b9250817fffffffffffffffffffffffffffffffffffffffffffffffffffffffffffffffff048311821515161561037257610371610260565b5b828202905092915050565b6000610388826101c0565b9150610393836101c0565b9250827fffffffffffffffffffffffffffffffffffffffffffffffffffffffffffffffff038211156103c8576103c7610260565b5b82820190509291505056fea2646970667358221220ea961feb15b3421408f10eca35ae04a574137e7151af70f95909a4616d80f29064736f6c634300080d0033",
  "immutableReferences": {},
  "source": "// SPDX-License-Identifier: MIT\npragma solidity >=0.4.24;\n\n \n library SafeMath {\n \n    function safeAdd(uint a, uint b) public pure returns (uint c) {\n        c = a + b;\n        require(c >= a);\n    }\n \n    function safeSub(uint a, uint b) public pure returns (uint c) {\n        require(b <= a);\n        c = a - b;\n    }\n \n    function safeMul(uint a, uint b) public pure returns (uint c) {\n        c = a * b;\n        require(a == 0 || c / a == b);\n    }\n \n    function safeDiv(uint a, uint b) public pure returns (uint c) {\n        require(b > 0);\n        c = a / b;\n    }\n}\n",
  "sourcePath": "/home/john/project/open-air-dapp/src/ethereum/contracts/SafeMath.sol",
  "compiler": {
    "name": "solc",
    "version": "0.8.13+commit.abaa5c0e.Emscripten.clang"
  },
  "schemaVersion": "3.4.5",
  "updatedAt": "2022-04-03T23:05:48.281Z",
  "networkType": "ethereum",
  "devdoc": {
    "kind": "dev",
    "methods": {},
    "version": 1
  },
  "userdoc": {
    "kind": "user",
    "methods": {},
    "version": 1
  }
}