{
  "contractName": "Speech",
  "abi": [
    {
      "inputs": [
        {
          "internalType": "address",
          "name": "_speaker",
          "type": "address"
        },
        {
          "internalType": "string",
          "name": "_fieldName",
          "type": "string"
        },
        {
          "internalType": "string",
          "name": "_areaName",
          "type": "string"
        },
        {
          "internalType": "string",
          "name": "_title",
          "type": "string"
        },
        {
          "internalType": "string",
          "name": "_content",
          "type": "string"
        }
      ],
      "stateMutability": "nonpayable",
      "type": "constructor"
    },
    {
      "anonymous": false,
      "inputs": [
        {
          "indexed": false,
          "internalType": "address",
          "name": "voter",
          "type": "address"
        },
        {
          "indexed": false,
          "internalType": "string",
          "name": "fieldName",
          "type": "string"
        },
        {
          "indexed": false,
          "internalType": "string",
          "name": "areaName",
          "type": "string"
        },
        {
          "indexed": false,
          "internalType": "string",
          "name": "title",
          "type": "string"
        },
        {
          "indexed": false,
          "internalType": "address",
          "name": "speaker",
          "type": "address"
        }
      ],
      "name": "SpeechDownVoted",
      "type": "event"
    },
    {
      "anonymous": false,
      "inputs": [
        {
          "indexed": false,
          "internalType": "address",
          "name": "voter",
          "type": "address"
        },
        {
          "indexed": false,
          "internalType": "string",
          "name": "fieldName",
          "type": "string"
        },
        {
          "indexed": false,
          "internalType": "string",
          "name": "areaName",
          "type": "string"
        },
        {
          "indexed": false,
          "internalType": "string",
          "name": "title",
          "type": "string"
        },
        {
          "indexed": false,
          "internalType": "address",
          "name": "speaker",
          "type": "address"
        }
      ],
      "name": "SpeechUpVoted",
      "type": "event"
    },
    {
      "inputs": [],
      "name": "getSpeaker",
      "outputs": [
        {
          "internalType": "address",
          "name": "",
          "type": "address"
        }
      ],
      "stateMutability": "view",
      "type": "function"
    },
    {
      "inputs": [],
      "name": "getUpVotes",
      "outputs": [
        {
          "components": [
            {
              "internalType": "address",
              "name": "voter",
              "type": "address"
            },
            {
              "internalType": "bool",
              "name": "isUpvote",
              "type": "bool"
            },
            {
              "internalType": "string",
              "name": "comment",
              "type": "string"
            }
          ],
          "internalType": "struct SharedStructs.Vote[]",
          "name": "",
          "type": "tuple[]"
        }
      ],
      "stateMutability": "view",
      "type": "function"
    },
    {
      "inputs": [],
      "name": "getDownVotes",
      "outputs": [
        {
          "components": [
            {
              "internalType": "address",
              "name": "voter",
              "type": "address"
            },
            {
              "internalType": "bool",
              "name": "isUpvote",
              "type": "bool"
            },
            {
              "internalType": "string",
              "name": "comment",
              "type": "string"
            }
          ],
          "internalType": "struct SharedStructs.Vote[]",
          "name": "",
          "type": "tuple[]"
        }
      ],
      "stateMutability": "view",
      "type": "function"
    },
    {
      "inputs": [
        {
          "internalType": "address",
          "name": "voter",
          "type": "address"
        },
        {
          "internalType": "bool",
          "name": "isUpVote",
          "type": "bool"
        },
        {
          "internalType": "string",
          "name": "comment",
          "type": "string"
        }
      ],
      "name": "registerVote",
      "outputs": [],
      "stateMutability": "nonpayable",
      "type": "function"
    }
  ],
  "bytecode": "0x60806040523480156200001157600080fd5b50604051620015f0380380620015f08339818101604052810190620000379190620003d9565b336000806101000a81548173ffffffffffffffffffffffffffffffffffffffff021916908373ffffffffffffffffffffffffffffffffffffffff16021790555083600290805190602001906200008f92919062000127565b508260039080519060200190620000a892919062000127565b5084600460006101000a81548173ffffffffffffffffffffffffffffffffffffffff021916908373ffffffffffffffffffffffffffffffffffffffff16021790555081600590805190602001906200010292919062000127565b5080600690805190602001906200011b92919062000127565b50505050505062000541565b82805462000135906200050c565b90600052602060002090601f016020900481019282620001595760008555620001a5565b82601f106200017457805160ff1916838001178555620001a5565b82800160010185558215620001a5579182015b82811115620001a457825182559160200191906001019062000187565b5b509050620001b49190620001b8565b5090565b5b80821115620001d3576000816000905550600101620001b9565b5090565b6000604051905090565b600080fd5b600080fd5b600073ffffffffffffffffffffffffffffffffffffffff82169050919050565b60006200021882620001eb565b9050919050565b6200022a816200020b565b81146200023657600080fd5b50565b6000815190506200024a816200021f565b92915050565b600080fd5b600080fd5b6000601f19601f8301169050919050565b7f4e487b7100000000000000000000000000000000000000000000000000000000600052604160045260246000fd5b620002a5826200025a565b810181811067ffffffffffffffff82111715620002c757620002c66200026b565b5b80604052505050565b6000620002dc620001d7565b9050620002ea82826200029a565b919050565b600067ffffffffffffffff8211156200030d576200030c6200026b565b5b62000318826200025a565b9050602081019050919050565b60005b838110156200034557808201518184015260208101905062000328565b8381111562000355576000848401525b50505050565b6000620003726200036c84620002ef565b620002d0565b90508281526020810184848401111562000391576200039062000255565b5b6200039e84828562000325565b509392505050565b600082601f830112620003be57620003bd62000250565b5b8151620003d08482602086016200035b565b91505092915050565b600080600080600060a08688031215620003f857620003f7620001e1565b5b6000620004088882890162000239565b955050602086015167ffffffffffffffff8111156200042c576200042b620001e6565b5b6200043a88828901620003a6565b945050604086015167ffffffffffffffff8111156200045e576200045d620001e6565b5b6200046c88828901620003a6565b935050606086015167ffffffffffffffff81111562000490576200048f620001e6565b5b6200049e88828901620003a6565b925050608086015167ffffffffffffffff811115620004c257620004c1620001e6565b5b620004d088828901620003a6565b9150509295509295909350565b7f4e487b7100000000000000000000000000000000000000000000000000000000600052602260045260246000fd5b600060028204905060018216806200052557607f821691505b6020821081036200053b576200053a620004dd565b5b50919050565b61109f80620005516000396000f3fe608060405234801561001057600080fd5b506004361061004c5760003560e01c8063165ee838146100515780637a3df7081461006f578063b0351f381461008d578063eadb4936146100a9575b600080fd5b6100596100c7565b6040516100669190610923565b60405180910390f35b6100776100f1565b6040516100849190610b13565b60405180910390f35b6100a760048036038101906100a29190610cd6565b610253565b005b6100b1610687565b6040516100be9190610b13565b60405180910390f35b6000600460009054906101000a900473ffffffffffffffffffffffffffffffffffffffff16905090565b60606007805480602002602001604051908101604052809291908181526020016000905b8282101561024a57838290600052602060002090600202016040518060600160405290816000820160009054906101000a900473ffffffffffffffffffffffffffffffffffffffff1673ffffffffffffffffffffffffffffffffffffffff1673ffffffffffffffffffffffffffffffffffffffff1681526020016000820160149054906101000a900460ff161515151581526020016001820180546101b990610d74565b80601f01602080910402602001604051908101604052809291908181526020018280546101e590610d74565b80156102325780601f1061020757610100808354040283529160200191610232565b820191906000526020600020905b81548152906001019060200180831161021557829003601f168201915b50505050508152505081526020019060010190610115565b50505050905090565b600460009054906101000a900473ffffffffffffffffffffffffffffffffffffffff1673ffffffffffffffffffffffffffffffffffffffff168373ffffffffffffffffffffffffffffffffffffffff16036102e3576040517f08c379a00000000000000000000000000000000000000000000000000000000081526004016102da90610e28565b60405180910390fd5b6102ec836107e9565b1561032c576040517f08c379a000000000000000000000000000000000000000000000000000000000815260040161032390610eba565b60405180910390fd5b60008054906101000a900473ffffffffffffffffffffffffffffffffffffffff1673ffffffffffffffffffffffffffffffffffffffff163373ffffffffffffffffffffffffffffffffffffffff16146103ba576040517f08c379a00000000000000000000000000000000000000000000000000000000081526004016103b190610f4c565b60405180910390fd5b600060405180606001604052808573ffffffffffffffffffffffffffffffffffffffff1681526020018415158152602001838152509050821561051257600781908060018154018082558091505060019003906000526020600020906002020160009091909190915060008201518160000160006101000a81548173ffffffffffffffffffffffffffffffffffffffff021916908373ffffffffffffffffffffffffffffffffffffffff16021790555060208201518160000160146101000a81548160ff02191690831515021790555060408201518160010190805190602001906104a692919061083f565b5050507fc9f99ded2b6fac528248a53319d84761ea3ad1bf6ee73f1dfddfa2e39815f42d84600260036005600460009054906101000a900473ffffffffffffffffffffffffffffffffffffffff16604051610505959493929190611001565b60405180910390a1610629565b600881908060018154018082558091505060019003906000526020600020906002020160009091909190915060008201518160000160006101000a81548173ffffffffffffffffffffffffffffffffffffffff021916908373ffffffffffffffffffffffffffffffffffffffff16021790555060208201518160000160146101000a81548160ff02191690831515021790555060408201518160010190805190602001906105c192919061083f565b5050507f2166dba8a3f59d5821e836c77d526b0cfff347fa5dff8e9dabfdc956eb9bdf6d84600260036005600460009054906101000a900473ffffffffffffffffffffffffffffffffffffffff16604051610620959493929190611001565b60405180910390a15b6001600960008673ffffffffffffffffffffffffffffffffffffffff1673ffffffffffffffffffffffffffffffffffffffff16815260200190815260200160002060006101000a81548160ff02191690831515021790555050505050565b60606008805480602002602001604051908101604052809291908181526020016000905b828210156107e057838290600052602060002090600202016040518060600160405290816000820160009054906101000a900473ffffffffffffffffffffffffffffffffffffffff1673ffffffffffffffffffffffffffffffffffffffff1673ffffffffffffffffffffffffffffffffffffffff1681526020016000820160149054906101000a900460ff1615151515815260200160018201805461074f90610d74565b80601f016020809104026020016040519081016040528092919081815260200182805461077b90610d74565b80156107c85780601f1061079d576101008083540402835291602001916107c8565b820191906000526020600020905b8154815290600101906020018083116107ab57829003601f168201915b505050505081525050815260200190600101906106ab565b50505050905090565b6000600960008373ffffffffffffffffffffffffffffffffffffffff1673ffffffffffffffffffffffffffffffffffffffff16815260200190815260200160002060009054906101000a900460ff169050919050565b82805461084b90610d74565b90600052602060002090601f01602090048101928261086d57600085556108b4565b82601f1061088657805160ff19168380011785556108b4565b828001600101855582156108b4579182015b828111156108b3578251825591602001919060010190610898565b5b5090506108c191906108c5565b5090565b5b808211156108de5760008160009055506001016108c6565b5090565b600073ffffffffffffffffffffffffffffffffffffffff82169050919050565b600061090d826108e2565b9050919050565b61091d81610902565b82525050565b60006020820190506109386000830184610914565b92915050565b600081519050919050565b600082825260208201905092915050565b6000819050602082019050919050565b61097381610902565b82525050565b60008115159050919050565b61098e81610979565b82525050565b600081519050919050565b600082825260208201905092915050565b60005b838110156109ce5780820151818401526020810190506109b3565b838111156109dd576000848401525b50505050565b6000601f19601f8301169050919050565b60006109ff82610994565b610a09818561099f565b9350610a198185602086016109b0565b610a22816109e3565b840191505092915050565b6000606083016000830151610a45600086018261096a565b506020830151610a586020860182610985565b5060408301518482036040860152610a7082826109f4565b9150508091505092915050565b6000610a898383610a2d565b905092915050565b6000602082019050919050565b6000610aa98261093e565b610ab38185610949565b935083602082028501610ac58561095a565b8060005b85811015610b015784840389528151610ae28582610a7d565b9450610aed83610a91565b925060208a01995050600181019050610ac9565b50829750879550505050505092915050565b60006020820190508181036000830152610b2d8184610a9e565b905092915050565b6000604051905090565b600080fd5b600080fd5b610b5281610902565b8114610b5d57600080fd5b50565b600081359050610b6f81610b49565b92915050565b610b7e81610979565b8114610b8957600080fd5b50565b600081359050610b9b81610b75565b92915050565b600080fd5b600080fd5b7f4e487b7100000000000000000000000000000000000000000000000000000000600052604160045260246000fd5b610be3826109e3565b810181811067ffffffffffffffff82111715610c0257610c01610bab565b5b80604052505050565b6000610c15610b35565b9050610c218282610bda565b919050565b600067ffffffffffffffff821115610c4157610c40610bab565b5b610c4a826109e3565b9050602081019050919050565b82818337600083830152505050565b6000610c79610c7484610c26565b610c0b565b905082815260208101848484011115610c9557610c94610ba6565b5b610ca0848285610c57565b509392505050565b600082601f830112610cbd57610cbc610ba1565b5b8135610ccd848260208601610c66565b91505092915050565b600080600060608486031215610cef57610cee610b3f565b5b6000610cfd86828701610b60565b9350506020610d0e86828701610b8c565b925050604084013567ffffffffffffffff811115610d2f57610d2e610b44565b5b610d3b86828701610ca8565b9150509250925092565b7f4e487b7100000000000000000000000000000000000000000000000000000000600052602260045260246000fd5b60006002820490506001821680610d8c57607f821691505b602082108103610d9f57610d9e610d45565b5b50919050565b600082825260208201905092915050565b7f4e6f7420616c6c6f7720746f20766f746520666f7220796f7572206f776e207360008201527f70656563682e0000000000000000000000000000000000000000000000000000602082015250565b6000610e12602683610da5565b9150610e1d82610db6565b604082019050919050565b60006020820190508181036000830152610e4181610e05565b9050919050565b7f4465636c696e65642061732074686520766f746572206861642070726576696f60008201527f75736c7920766f7465642e000000000000000000000000000000000000000000602082015250565b6000610ea4602b83610da5565b9150610eaf82610e48565b604082019050919050565b60006020820190508181036000830152610ed381610e97565b9050919050565b7f6f6e6c79206163636570747320726571756573742066726f6d20746865206f7060008201527f656e41697220706c6174666f726d20636f6e7472616374000000000000000000602082015250565b6000610f36603783610da5565b9150610f4182610eda565b604082019050919050565b60006020820190508181036000830152610f6581610f29565b9050919050565b60008190508160005260206000209050919050565b60008154610f8e81610d74565b610f988186610da5565b94506001821660008114610fb35760018114610fc557610ff8565b60ff1983168652602086019350610ff8565b610fce85610f6c565b60005b83811015610ff057815481890152600182019150602081019050610fd1565b808801955050505b50505092915050565b600060a0820190506110166000830188610914565b81810360208301526110288187610f81565b9050818103604083015261103c8186610f81565b905081810360608301526110508185610f81565b905061105f6080830184610914565b969550505050505056fea264697066735822122005baf176f059f67d29b3366aef4d901deeb34ebf51ceb9242d53f72e7f0e97ab64736f6c634300080d0033",
  "immutableReferences": {},
  "source": "// SPDX-License-Identifier: UNLICENSED\npragma solidity ^0.8.0;\n\nimport \"./OpinionToken.sol\";\nimport \"./OpenAir.sol\";\nimport \"./SharedStructs.sol\";\n\ncontract Speech {\n\n    event SpeechUpVoted(address voter, string fieldName, string areaName, string title, address speaker);\n    event SpeechDownVoted(address voter, string fieldName, string areaName, string title, address speaker);\n\n\n    OpenAir platformContract;\n    OpinionToken tokenContract;\n    string fieldName;\n    string areaName;\n\n    address speaker;\n    string title;\n    string content;\n    SharedStructs.Vote[] upVotes;\n    SharedStructs.Vote[] downVotes;\n    mapping (address => bool) votedRecord;\n\n    constructor (address _speaker, string memory _fieldName, string memory _areaName, string memory _title, string memory _content) {\n        platformContract = OpenAir(msg.sender);\n        fieldName = _fieldName;\n        areaName = _areaName;\n        speaker = _speaker;\n        title = _title;\n        content =_content;\n    }\n\n    function getSpeaker() public view returns (address) {\n        return speaker;\n    }\n\n    function getUpVotes() public view returns (SharedStructs.Vote[] memory) {\n        return upVotes;\n    }    \n\n    function getDownVotes() public view returns (SharedStructs.Vote[] memory) {\n        return downVotes;\n    }  \n\n    function hadVoted(address voter) internal view returns (bool) {\n        return votedRecord[voter];\n    }\n\n    function registerVote(address voter, bool isUpVote, string memory comment) public {\n        require(voter != speaker, \"Not allow to vote for your own speech.\");\n        require(!hadVoted(voter), \"Declined as the voter had previously voted.\");\n        require(msg.sender == address(platformContract), \"only accepts request from the openAir platform contract\");\n\n        SharedStructs.Vote memory vote = SharedStructs.Vote(voter, isUpVote, comment);\n        if (isUpVote) {\n            upVotes.push(vote);\n            emit SpeechUpVoted(voter, fieldName, areaName, title, speaker);\n        } else {\n            downVotes.push(vote);\n            emit SpeechDownVoted(voter, fieldName, areaName, title, speaker);\n        }\n        votedRecord[voter] = true;\n    }\n}",
  "sourcePath": "/home/john/project/open-air-dapp/src/ethereum/contracts/Speech.sol",
  "compiler": {
    "name": "solc",
    "version": "0.8.13+commit.abaa5c0e.Emscripten.clang"
  },
  "schemaVersion": "3.4.5",
  "updatedAt": "2022-04-03T23:05:24.665Z",
  "devdoc": {
    "kind": "dev",
    "methods": {},
    "version": 1
  },
  "userdoc": {
    "kind": "user",
    "methods": {},
    "version": 1
  }
}