{
  "contractName": "Speech",
  "abi": [
    {
      "inputs": [
        {
          "internalType": "address",
          "name": "_speaker",
          "type": "address"
        },
        {
          "internalType": "string",
          "name": "_fieldName",
          "type": "string"
        },
        {
          "internalType": "string",
          "name": "_areaName",
          "type": "string"
        },
        {
          "internalType": "string",
          "name": "_title",
          "type": "string"
        },
        {
          "internalType": "string",
          "name": "_content",
          "type": "string"
        }
      ],
      "stateMutability": "nonpayable",
      "type": "constructor"
    },
    {
      "anonymous": false,
      "inputs": [
        {
          "indexed": false,
          "internalType": "address",
          "name": "voter",
          "type": "address"
        },
        {
          "indexed": false,
          "internalType": "string",
          "name": "fieldName",
          "type": "string"
        },
        {
          "indexed": false,
          "internalType": "string",
          "name": "areaName",
          "type": "string"
        },
        {
          "indexed": false,
          "internalType": "string",
          "name": "title",
          "type": "string"
        },
        {
          "indexed": false,
          "internalType": "address",
          "name": "speaker",
          "type": "address"
        }
      ],
      "name": "SpeechDownVoted",
      "type": "event"
    },
    {
      "anonymous": false,
      "inputs": [
        {
          "indexed": false,
          "internalType": "address",
          "name": "voter",
          "type": "address"
        },
        {
          "indexed": false,
          "internalType": "string",
          "name": "fieldName",
          "type": "string"
        },
        {
          "indexed": false,
          "internalType": "string",
          "name": "areaName",
          "type": "string"
        },
        {
          "indexed": false,
          "internalType": "string",
          "name": "title",
          "type": "string"
        },
        {
          "indexed": false,
          "internalType": "address",
          "name": "speaker",
          "type": "address"
        }
      ],
      "name": "SpeechUpVoted",
      "type": "event"
    },
    {
      "inputs": [],
      "name": "getSpeaker",
      "outputs": [
        {
          "internalType": "address",
          "name": "",
          "type": "address"
        }
      ],
      "stateMutability": "view",
      "type": "function"
    },
    {
      "inputs": [],
      "name": "getTitle",
      "outputs": [
        {
          "internalType": "string",
          "name": "",
          "type": "string"
        }
      ],
      "stateMutability": "view",
      "type": "function"
    },
    {
      "inputs": [],
      "name": "getContent",
      "outputs": [
        {
          "internalType": "string",
          "name": "",
          "type": "string"
        }
      ],
      "stateMutability": "view",
      "type": "function"
    },
    {
      "inputs": [],
      "name": "getUpVotes",
      "outputs": [
        {
          "components": [
            {
              "internalType": "address",
              "name": "voter",
              "type": "address"
            },
            {
              "internalType": "bool",
              "name": "isUpvote",
              "type": "bool"
            },
            {
              "internalType": "string",
              "name": "comment",
              "type": "string"
            }
          ],
          "internalType": "struct SharedStructs.Vote[]",
          "name": "",
          "type": "tuple[]"
        }
      ],
      "stateMutability": "view",
      "type": "function"
    },
    {
      "inputs": [],
      "name": "getDownVotes",
      "outputs": [
        {
          "components": [
            {
              "internalType": "address",
              "name": "voter",
              "type": "address"
            },
            {
              "internalType": "bool",
              "name": "isUpvote",
              "type": "bool"
            },
            {
              "internalType": "string",
              "name": "comment",
              "type": "string"
            }
          ],
          "internalType": "struct SharedStructs.Vote[]",
          "name": "",
          "type": "tuple[]"
        }
      ],
      "stateMutability": "view",
      "type": "function"
    },
    {
      "inputs": [
        {
          "internalType": "address",
          "name": "voter",
          "type": "address"
        },
        {
          "internalType": "bool",
          "name": "isUpVote",
          "type": "bool"
        },
        {
          "internalType": "string",
          "name": "comment",
          "type": "string"
        }
      ],
      "name": "registerVote",
      "outputs": [],
      "stateMutability": "nonpayable",
      "type": "function"
    }
  ],
  "bytecode": "0x60806040523480156200001157600080fd5b50604051620017c1380380620017c18339818101604052810190620000379190620003d9565b336000806101000a81548173ffffffffffffffffffffffffffffffffffffffff021916908373ffffffffffffffffffffffffffffffffffffffff16021790555083600290805190602001906200008f92919062000127565b508260039080519060200190620000a892919062000127565b5084600460006101000a81548173ffffffffffffffffffffffffffffffffffffffff021916908373ffffffffffffffffffffffffffffffffffffffff16021790555081600590805190602001906200010292919062000127565b5080600690805190602001906200011b92919062000127565b50505050505062000541565b82805462000135906200050c565b90600052602060002090601f016020900481019282620001595760008555620001a5565b82601f106200017457805160ff1916838001178555620001a5565b82800160010185558215620001a5579182015b82811115620001a457825182559160200191906001019062000187565b5b509050620001b49190620001b8565b5090565b5b80821115620001d3576000816000905550600101620001b9565b5090565b6000604051905090565b600080fd5b600080fd5b600073ffffffffffffffffffffffffffffffffffffffff82169050919050565b60006200021882620001eb565b9050919050565b6200022a816200020b565b81146200023657600080fd5b50565b6000815190506200024a816200021f565b92915050565b600080fd5b600080fd5b6000601f19601f8301169050919050565b7f4e487b7100000000000000000000000000000000000000000000000000000000600052604160045260246000fd5b620002a5826200025a565b810181811067ffffffffffffffff82111715620002c757620002c66200026b565b5b80604052505050565b6000620002dc620001d7565b9050620002ea82826200029a565b919050565b600067ffffffffffffffff8211156200030d576200030c6200026b565b5b62000318826200025a565b9050602081019050919050565b60005b838110156200034557808201518184015260208101905062000328565b8381111562000355576000848401525b50505050565b6000620003726200036c84620002ef565b620002d0565b90508281526020810184848401111562000391576200039062000255565b5b6200039e84828562000325565b509392505050565b600082601f830112620003be57620003bd62000250565b5b8151620003d08482602086016200035b565b91505092915050565b600080600080600060a08688031215620003f857620003f7620001e1565b5b6000620004088882890162000239565b955050602086015167ffffffffffffffff8111156200042c576200042b620001e6565b5b6200043a88828901620003a6565b945050604086015167ffffffffffffffff8111156200045e576200045d620001e6565b5b6200046c88828901620003a6565b935050606086015167ffffffffffffffff81111562000490576200048f620001e6565b5b6200049e88828901620003a6565b925050608086015167ffffffffffffffff811115620004c257620004c1620001e6565b5b620004d088828901620003a6565b9150509295509295909350565b7f4e487b7100000000000000000000000000000000000000000000000000000000600052602260045260246000fd5b600060028204905060018216806200052557607f821691505b6020821081036200053b576200053a620004dd565b5b50919050565b61127080620005516000396000f3fe608060405234801561001057600080fd5b50600436106100625760003560e01c8063165ee8381461006757806359016c79146100855780637a3df708146100a3578063b0351f38146100c1578063eadb4936146100dd578063ff3c1a8f146100fb575b600080fd5b61006f610119565b60405161007c9190610a99565b60405180910390f35b61008d610143565b60405161009a9190610b4d565b60405180910390f35b6100ab6101d5565b6040516100b89190610cf5565b60405180910390f35b6100db60048036038101906100d69190610eb8565b610337565b005b6100e561076b565b6040516100f29190610cf5565b60405180910390f35b6101036108cd565b6040516101109190610b4d565b60405180910390f35b6000600460009054906101000a900473ffffffffffffffffffffffffffffffffffffffff16905090565b60606006805461015290610f56565b80601f016020809104026020016040519081016040528092919081815260200182805461017e90610f56565b80156101cb5780601f106101a0576101008083540402835291602001916101cb565b820191906000526020600020905b8154815290600101906020018083116101ae57829003601f168201915b5050505050905090565b60606007805480602002602001604051908101604052809291908181526020016000905b8282101561032e57838290600052602060002090600202016040518060600160405290816000820160009054906101000a900473ffffffffffffffffffffffffffffffffffffffff1673ffffffffffffffffffffffffffffffffffffffff1673ffffffffffffffffffffffffffffffffffffffff1681526020016000820160149054906101000a900460ff1615151515815260200160018201805461029d90610f56565b80601f01602080910402602001604051908101604052809291908181526020018280546102c990610f56565b80156103165780601f106102eb57610100808354040283529160200191610316565b820191906000526020600020905b8154815290600101906020018083116102f957829003601f168201915b505050505081525050815260200190600101906101f9565b50505050905090565b600460009054906101000a900473ffffffffffffffffffffffffffffffffffffffff1673ffffffffffffffffffffffffffffffffffffffff168373ffffffffffffffffffffffffffffffffffffffff16036103c7576040517f08c379a00000000000000000000000000000000000000000000000000000000081526004016103be90610ff9565b60405180910390fd5b6103d08361095f565b15610410576040517f08c379a00000000000000000000000000000000000000000000000000000000081526004016104079061108b565b60405180910390fd5b60008054906101000a900473ffffffffffffffffffffffffffffffffffffffff1673ffffffffffffffffffffffffffffffffffffffff163373ffffffffffffffffffffffffffffffffffffffff161461049e576040517f08c379a00000000000000000000000000000000000000000000000000000000081526004016104959061111d565b60405180910390fd5b600060405180606001604052808573ffffffffffffffffffffffffffffffffffffffff168152602001841515815260200183815250905082156105f657600781908060018154018082558091505060019003906000526020600020906002020160009091909190915060008201518160000160006101000a81548173ffffffffffffffffffffffffffffffffffffffff021916908373ffffffffffffffffffffffffffffffffffffffff16021790555060208201518160000160146101000a81548160ff021916908315150217905550604082015181600101908051906020019061058a9291906109b5565b5050507fc9f99ded2b6fac528248a53319d84761ea3ad1bf6ee73f1dfddfa2e39815f42d84600260036005600460009054906101000a900473ffffffffffffffffffffffffffffffffffffffff166040516105e99594939291906111d2565b60405180910390a161070d565b600881908060018154018082558091505060019003906000526020600020906002020160009091909190915060008201518160000160006101000a81548173ffffffffffffffffffffffffffffffffffffffff021916908373ffffffffffffffffffffffffffffffffffffffff16021790555060208201518160000160146101000a81548160ff02191690831515021790555060408201518160010190805190602001906106a59291906109b5565b5050507f2166dba8a3f59d5821e836c77d526b0cfff347fa5dff8e9dabfdc956eb9bdf6d84600260036005600460009054906101000a900473ffffffffffffffffffffffffffffffffffffffff166040516107049594939291906111d2565b60405180910390a15b6001600960008673ffffffffffffffffffffffffffffffffffffffff1673ffffffffffffffffffffffffffffffffffffffff16815260200190815260200160002060006101000a81548160ff02191690831515021790555050505050565b60606008805480602002602001604051908101604052809291908181526020016000905b828210156108c457838290600052602060002090600202016040518060600160405290816000820160009054906101000a900473ffffffffffffffffffffffffffffffffffffffff1673ffffffffffffffffffffffffffffffffffffffff1673ffffffffffffffffffffffffffffffffffffffff1681526020016000820160149054906101000a900460ff1615151515815260200160018201805461083390610f56565b80601f016020809104026020016040519081016040528092919081815260200182805461085f90610f56565b80156108ac5780601f10610881576101008083540402835291602001916108ac565b820191906000526020600020905b81548152906001019060200180831161088f57829003601f168201915b5050505050815250508152602001906001019061078f565b50505050905090565b6060600580546108dc90610f56565b80601f016020809104026020016040519081016040528092919081815260200182805461090890610f56565b80156109555780601f1061092a57610100808354040283529160200191610955565b820191906000526020600020905b81548152906001019060200180831161093857829003601f168201915b5050505050905090565b6000600960008373ffffffffffffffffffffffffffffffffffffffff1673ffffffffffffffffffffffffffffffffffffffff16815260200190815260200160002060009054906101000a900460ff169050919050565b8280546109c190610f56565b90600052602060002090601f0160209004810192826109e35760008555610a2a565b82601f106109fc57805160ff1916838001178555610a2a565b82800160010185558215610a2a579182015b82811115610a29578251825591602001919060010190610a0e565b5b509050610a379190610a3b565b5090565b5b80821115610a54576000816000905550600101610a3c565b5090565b600073ffffffffffffffffffffffffffffffffffffffff82169050919050565b6000610a8382610a58565b9050919050565b610a9381610a78565b82525050565b6000602082019050610aae6000830184610a8a565b92915050565b600081519050919050565b600082825260208201905092915050565b60005b83811015610aee578082015181840152602081019050610ad3565b83811115610afd576000848401525b50505050565b6000601f19601f8301169050919050565b6000610b1f82610ab4565b610b298185610abf565b9350610b39818560208601610ad0565b610b4281610b03565b840191505092915050565b60006020820190508181036000830152610b678184610b14565b905092915050565b600081519050919050565b600082825260208201905092915050565b6000819050602082019050919050565b610ba481610a78565b82525050565b60008115159050919050565b610bbf81610baa565b82525050565b600082825260208201905092915050565b6000610be182610ab4565b610beb8185610bc5565b9350610bfb818560208601610ad0565b610c0481610b03565b840191505092915050565b6000606083016000830151610c276000860182610b9b565b506020830151610c3a6020860182610bb6565b5060408301518482036040860152610c528282610bd6565b9150508091505092915050565b6000610c6b8383610c0f565b905092915050565b6000602082019050919050565b6000610c8b82610b6f565b610c958185610b7a565b935083602082028501610ca785610b8b565b8060005b85811015610ce35784840389528151610cc48582610c5f565b9450610ccf83610c73565b925060208a01995050600181019050610cab565b50829750879550505050505092915050565b60006020820190508181036000830152610d0f8184610c80565b905092915050565b6000604051905090565b600080fd5b600080fd5b610d3481610a78565b8114610d3f57600080fd5b50565b600081359050610d5181610d2b565b92915050565b610d6081610baa565b8114610d6b57600080fd5b50565b600081359050610d7d81610d57565b92915050565b600080fd5b600080fd5b7f4e487b7100000000000000000000000000000000000000000000000000000000600052604160045260246000fd5b610dc582610b03565b810181811067ffffffffffffffff82111715610de457610de3610d8d565b5b80604052505050565b6000610df7610d17565b9050610e038282610dbc565b919050565b600067ffffffffffffffff821115610e2357610e22610d8d565b5b610e2c82610b03565b9050602081019050919050565b82818337600083830152505050565b6000610e5b610e5684610e08565b610ded565b905082815260208101848484011115610e7757610e76610d88565b5b610e82848285610e39565b509392505050565b600082601f830112610e9f57610e9e610d83565b5b8135610eaf848260208601610e48565b91505092915050565b600080600060608486031215610ed157610ed0610d21565b5b6000610edf86828701610d42565b9350506020610ef086828701610d6e565b925050604084013567ffffffffffffffff811115610f1157610f10610d26565b5b610f1d86828701610e8a565b9150509250925092565b7f4e487b7100000000000000000000000000000000000000000000000000000000600052602260045260246000fd5b60006002820490506001821680610f6e57607f821691505b602082108103610f8157610f80610f27565b5b50919050565b7f4e6f7420616c6c6f7720746f20766f746520666f7220796f7572206f776e207360008201527f70656563682e0000000000000000000000000000000000000000000000000000602082015250565b6000610fe3602683610abf565b9150610fee82610f87565b604082019050919050565b6000602082019050818103600083015261101281610fd6565b9050919050565b7f4465636c696e65642061732074686520766f746572206861642070726576696f60008201527f75736c7920766f7465642e000000000000000000000000000000000000000000602082015250565b6000611075602b83610abf565b915061108082611019565b604082019050919050565b600060208201905081810360008301526110a481611068565b9050919050565b7f6f6e6c79206163636570747320726571756573742066726f6d20746865206f7060008201527f656e41697220706c6174666f726d20636f6e7472616374000000000000000000602082015250565b6000611107603783610abf565b9150611112826110ab565b604082019050919050565b60006020820190508181036000830152611136816110fa565b9050919050565b60008190508160005260206000209050919050565b6000815461115f81610f56565b6111698186610abf565b945060018216600081146111845760018114611196576111c9565b60ff19831686526020860193506111c9565b61119f8561113d565b60005b838110156111c1578154818901526001820191506020810190506111a2565b808801955050505b50505092915050565b600060a0820190506111e76000830188610a8a565b81810360208301526111f98187611152565b9050818103604083015261120d8186611152565b905081810360608301526112218185611152565b90506112306080830184610a8a565b969550505050505056fea2646970667358221220e70dfb9651d30b03aa197fab8f12cf5fa13788187a34f8c3005695add7e9879764736f6c634300080d0033",
  "immutableReferences": {},
  "source": "// SPDX-License-Identifier: UNLICENSED\npragma solidity ^0.8.0;\n\nimport \"./OpinionToken.sol\";\nimport \"./OpenAir.sol\";\nimport \"./SharedStructs.sol\";\n\ncontract Speech {\n\n    event SpeechUpVoted(address voter, string fieldName, string areaName, string title, address speaker);\n    event SpeechDownVoted(address voter, string fieldName, string areaName, string title, address speaker);\n\n\n    OpenAir platformContract;\n    OpinionToken tokenContract;\n    string fieldName;\n    string areaName;\n\n    address speaker;\n    string title;\n    string content;\n    SharedStructs.Vote[] upVotes;\n    SharedStructs.Vote[] downVotes;\n    mapping (address => bool) votedRecord;\n\n    constructor (address _speaker, string memory _fieldName, string memory _areaName, string memory _title, string memory _content) {\n        platformContract = OpenAir(msg.sender);\n        fieldName = _fieldName;\n        areaName = _areaName;\n        speaker = _speaker;\n        title = _title;\n        content =_content;\n    }\n\n    function getSpeaker() public view returns (address) {\n        return speaker;\n    }\n\n    function getTitle() public view returns (string memory) {\n        return title;\n    }\n\n    function getContent() public view returns (string memory) {\n        return content;\n    }\n\n    function getUpVotes() public view returns (SharedStructs.Vote[] memory) {\n        return upVotes;\n    }    \n\n    function getDownVotes() public view returns (SharedStructs.Vote[] memory) {\n        return downVotes;\n    }  \n\n    function hadVoted(address voter) internal view returns (bool) {\n        return votedRecord[voter];\n    }\n\n    function registerVote(address voter, bool isUpVote, string memory comment) public {\n        require(voter != speaker, \"Not allow to vote for your own speech.\");\n        require(!hadVoted(voter), \"Declined as the voter had previously voted.\");\n        require(msg.sender == address(platformContract), \"only accepts request from the openAir platform contract\");\n\n        SharedStructs.Vote memory vote = SharedStructs.Vote(voter, isUpVote, comment);\n        if (isUpVote) {\n            upVotes.push(vote);\n            emit SpeechUpVoted(voter, fieldName, areaName, title, speaker);\n        } else {\n            downVotes.push(vote);\n            emit SpeechDownVoted(voter, fieldName, areaName, title, speaker);\n        }\n        votedRecord[voter] = true;\n    }\n}",
  "sourcePath": "/home/john/project/open-air-dapp/src/ethereum/contracts/Speech.sol",
  "compiler": {
    "name": "solc",
    "version": "0.8.13+commit.abaa5c0e.Emscripten.clang"
  },
  "schemaVersion": "3.4.5",
  "updatedAt": "2022-04-06T04:13:41.071Z",
  "devdoc": {
    "kind": "dev",
    "methods": {},
    "version": 1
  },
  "userdoc": {
    "kind": "user",
    "methods": {},
    "version": 1
  }
}