{
  "contractName": "Utils",
  "abi": [
    {
      "inputs": [
        {
          "internalType": "string",
          "name": "a",
          "type": "string"
        },
        {
          "internalType": "string",
          "name": "b",
          "type": "string"
        }
      ],
      "name": "compareStrings",
      "outputs": [
        {
          "internalType": "bool",
          "name": "",
          "type": "bool"
        }
      ],
      "stateMutability": "pure",
      "type": "function",
      "constant": true
    },
    {
      "inputs": [
        {
          "internalType": "string",
          "name": "a",
          "type": "string"
        },
        {
          "internalType": "string",
          "name": "b",
          "type": "string"
        }
      ],
      "name": "append",
      "outputs": [
        {
          "internalType": "string",
          "name": "",
          "type": "string"
        }
      ],
      "stateMutability": "pure",
      "type": "function",
      "constant": true
    },
    {
      "inputs": [
        {
          "internalType": "address",
          "name": "_addr",
          "type": "address"
        }
      ],
      "name": "isContract",
      "outputs": [
        {
          "internalType": "bool",
          "name": "",
          "type": "bool"
        }
      ],
      "stateMutability": "view",
      "type": "function",
      "constant": true
    },
    {
      "inputs": [
        {
          "internalType": "address",
          "name": "addr",
          "type": "address"
        }
      ],
      "name": "addrToString",
      "outputs": [
        {
          "internalType": "string",
          "name": "",
          "type": "string"
        }
      ],
      "stateMutability": "pure",
      "type": "function",
      "constant": true
    }
  ],
  "bytecode": "0x610c02610053600b82828239805160001a607314610046577f4e487b7100000000000000000000000000000000000000000000000000000000600052600060045260246000fd5b30600052607381538281f3fe73000000000000000000000000000000000000000030146080604052600436106100565760003560e01c8063162790551461005b578063591c515f1461008b578063b7d534a1146100bb578063bed34bba146100eb575b600080fd5b61007560048036038101906100709190610434565b61011b565b604051610082919061047c565b60405180910390f35b6100a560048036038101906100a091906105dd565b610134565b6040516100b291906106dd565b60405180910390f35b6100d560048036038101906100d09190610434565b610160565b6040516100e291906106dd565b60405180910390f35b610105600480360381019061010091906105dd565b610323565b604051610112919061047c565b60405180910390f35b600080823b905060008163ffffffff1611915050919050565b6060828260405160200161014992919061073b565b604051602081830303815290604052905092915050565b60606000602867ffffffffffffffff81111561017f5761017e6104b2565b5b6040519080825280601f01601f1916602001820160405280156101b15781602001600182028036833780820191505090505b50905060005b60148110156103195760008160136101cf9190610798565b60086101db91906107cc565b60026101e79190610959565b8573ffffffffffffffffffffffffffffffffffffffff1661020891906109d3565b60f81b9050600060108260f81c61021f9190610a11565b60f81b905060008160f81c60106102369190610a42565b8360f81c6102449190610a7d565b60f81b90506102528261037c565b8585600261026091906107cc565b8151811061027157610270610ab1565b5b60200101907effffffffffffffffffffffffffffffffffffffffffffffffffffffffffffff1916908160001a9053506102a98161037c565b8560018660026102b991906107cc565b6102c39190610ae0565b815181106102d4576102d3610ab1565b5b60200101907effffffffffffffffffffffffffffffffffffffffffffffffffffffffffffff1916908160001a905350505050808061031190610b36565b9150506101b7565b5080915050919050565b6000816040516020016103369190610b7e565b604051602081830303815290604052805190602001208360405160200161035d9190610b7e565b6040516020818303038152906040528051906020012014905092915050565b6000600a8260f81c60ff1610156103a75760308260f81c61039d9190610b95565b60f81b90506103bd565b60578260f81c6103b79190610b95565b60f81b90505b919050565b6000604051905090565b600080fd5b600080fd5b600073ffffffffffffffffffffffffffffffffffffffff82169050919050565b6000610401826103d6565b9050919050565b610411816103f6565b811461041c57600080fd5b50565b60008135905061042e81610408565b92915050565b60006020828403121561044a576104496103cc565b5b60006104588482850161041f565b91505092915050565b60008115159050919050565b61047681610461565b82525050565b6000602082019050610491600083018461046d565b92915050565b600080fd5b600080fd5b6000601f19601f8301169050919050565b7f4e487b7100000000000000000000000000000000000000000000000000000000600052604160045260246000fd5b6104ea826104a1565b810181811067ffffffffffffffff82111715610509576105086104b2565b5b80604052505050565b600061051c6103c2565b905061052882826104e1565b919050565b600067ffffffffffffffff821115610548576105476104b2565b5b610551826104a1565b9050602081019050919050565b82818337600083830152505050565b600061058061057b8461052d565b610512565b90508281526020810184848401111561059c5761059b61049c565b5b6105a784828561055e565b509392505050565b600082601f8301126105c4576105c3610497565b5b81356105d484826020860161056d565b91505092915050565b600080604083850312156105f4576105f36103cc565b5b600083013567ffffffffffffffff811115610612576106116103d1565b5b61061e858286016105af565b925050602083013567ffffffffffffffff81111561063f5761063e6103d1565b5b61064b858286016105af565b9150509250929050565b600081519050919050565b600082825260208201905092915050565b60005b8381101561068f578082015181840152602081019050610674565b8381111561069e576000848401525b50505050565b60006106af82610655565b6106b98185610660565b93506106c9818560208601610671565b6106d2816104a1565b840191505092915050565b600060208201905081810360008301526106f781846106a4565b905092915050565b600081905092915050565b600061071582610655565b61071f81856106ff565b935061072f818560208601610671565b80840191505092915050565b6000610747828561070a565b9150610753828461070a565b91508190509392505050565b6000819050919050565b7f4e487b7100000000000000000000000000000000000000000000000000000000600052601160045260246000fd5b60006107a38261075f565b91506107ae8361075f565b9250828210156107c1576107c0610769565b5b828203905092915050565b60006107d78261075f565b91506107e28361075f565b9250817fffffffffffffffffffffffffffffffffffffffffffffffffffffffffffffffff048311821515161561081b5761081a610769565b5b828202905092915050565b60008160011c9050919050565b6000808291508390505b600185111561087d5780860481111561085957610858610769565b5b60018516156108685780820291505b808102905061087685610826565b945061083d565b94509492505050565b6000826108965760019050610952565b816108a45760009050610952565b81600181146108ba57600281146108c4576108f3565b6001915050610952565b60ff8411156108d6576108d5610769565b5b8360020a9150848211156108ed576108ec610769565b5b50610952565b5060208310610133831016604e8410600b84101617156109285782820a90508381111561092357610922610769565b5b610952565b6109358484846001610833565b9250905081840481111561094c5761094b610769565b5b81810290505b9392505050565b60006109648261075f565b915061096f8361075f565b925061099c7fffffffffffffffffffffffffffffffffffffffffffffffffffffffffffffffff8484610886565b905092915050565b7f4e487b7100000000000000000000000000000000000000000000000000000000600052601260045260246000fd5b60006109de8261075f565b91506109e98361075f565b9250826109f9576109f86109a4565b5b828204905092915050565b600060ff82169050919050565b6000610a1c82610a04565b9150610a2783610a04565b925082610a3757610a366109a4565b5b828204905092915050565b6000610a4d82610a04565b9150610a5883610a04565b92508160ff0483118215151615610a7257610a71610769565b5b828202905092915050565b6000610a8882610a04565b9150610a9383610a04565b925082821015610aa657610aa5610769565b5b828203905092915050565b7f4e487b7100000000000000000000000000000000000000000000000000000000600052603260045260246000fd5b6000610aeb8261075f565b9150610af68361075f565b9250827fffffffffffffffffffffffffffffffffffffffffffffffffffffffffffffffff03821115610b2b57610b2a610769565b5b828201905092915050565b6000610b418261075f565b91507fffffffffffffffffffffffffffffffffffffffffffffffffffffffffffffffff8203610b7357610b72610769565b5b600182019050919050565b6000610b8a828461070a565b915081905092915050565b6000610ba082610a04565b9150610bab83610a04565b92508260ff03821115610bc157610bc0610769565b5b82820190509291505056fea2646970667358221220d5d1c16d37da9229b763e9440bc3f92dcc4955d4e3f851c6d4ab8b87cfc3172464736f6c634300080d0033",
  "immutableReferences": {},
  "source": "// SPDX-License-Identifier: UNLICENSED\npragma solidity ^0.8.13;\n\nlibrary Utils {\n    function compareStrings(string memory a, string memory b)\n        public\n        pure\n        returns (bool)\n    {\n        return (keccak256(abi.encodePacked((a))) ==\n            keccak256(abi.encodePacked((b))));\n    }\n\n    function append(string memory a, string memory b) public pure returns (string memory) {\n        return string(abi.encodePacked(a, b));\n    }\n\n    function isContract(address _addr) public view returns (bool){\n        uint32 size;\n        assembly {\n            size := extcodesize(_addr)\n        }\n        return (size > 0);\n    }\n\n    function addrToString(address addr) public pure returns (string memory) {\n        bytes memory s = new bytes(40);\n        for (uint i = 0; i < 20; i++) {\n            bytes1 b = bytes1(uint8(uint(uint160(addr)) / (2**(8*(19 - i)))));\n            bytes1 hi = bytes1(uint8(b) / 16);\n            bytes1 lo = bytes1(uint8(b) - 16 * uint8(hi));\n            s[2*i] = char(hi);\n            s[2*i+1] = char(lo);            \n        }\n        return string(s);\n    }\n\n    function char(bytes1 b) internal pure returns (bytes1 c) {\n        if (uint8(b) < 10) return bytes1(uint8(b) + 0x30);\n        else return bytes1(uint8(b) + 0x57);\n    }\n}\n",
  "sourcePath": "/home/john/project/open-air-dapp/src/ethereum/contracts/Utils.sol",
  "compiler": {
    "name": "solc",
    "version": "0.8.13+commit.abaa5c0e.Emscripten.clang"
  },
  "schemaVersion": "3.4.5",
  "updatedAt": "2022-04-07T13:09:27.020Z",
  "networkType": "ethereum",
  "devdoc": {
    "kind": "dev",
    "methods": {},
    "version": 1
  },
  "userdoc": {
    "kind": "user",
    "methods": {},
    "version": 1
  }
}